{
  "contractName": "Betting",
  "abi": [
    {
      "constant": true,
      "inputs": [
        {
          "name": "",
          "type": "uint256"
        }
      ],
      "name": "matchs",
      "outputs": [
        {
          "name": "id",
          "type": "uint256"
        },
        {
          "name": "homeTeam",
          "type": "string"
        },
        {
          "name": "externalTeam",
          "type": "string"
        },
        {
          "name": "matchState",
          "type": "uint8"
        },
        {
          "name": "label",
          "type": "string"
        },
        {
          "name": "date",
          "type": "uint256"
        },
        {
          "name": "quotation",
          "type": "uint256"
        }
      ],
      "payable": false,
      "stateMutability": "view",
      "type": "function",
      "signature": "0x17c4ecfb"
    },
    {
      "constant": true,
      "inputs": [],
      "name": "owner",
      "outputs": [
        {
          "name": "",
          "type": "address"
        }
      ],
      "payable": false,
      "stateMutability": "view",
      "type": "function",
      "signature": "0x8da5cb5b"
    },
    {
      "constant": true,
      "inputs": [],
      "name": "matchIDGenerator",
      "outputs": [
        {
          "name": "",
          "type": "uint256"
        }
      ],
      "payable": false,
      "stateMutability": "view",
      "type": "function",
      "signature": "0xa2f08839"
    },
    {
      "inputs": [],
      "payable": true,
      "stateMutability": "payable",
      "type": "constructor",
      "signature": "constructor"
    },
    {
      "anonymous": false,
      "inputs": [
        {
          "indexed": false,
          "name": "_homeTeam",
          "type": "string"
        },
        {
          "indexed": false,
          "name": "_externalTeam",
          "type": "string"
        },
        {
          "indexed": false,
          "name": "_label",
          "type": "string"
        },
        {
          "indexed": false,
          "name": "_date",
          "type": "uint256"
        },
        {
          "indexed": false,
          "name": "_matchIDGenerator",
          "type": "uint256"
        },
        {
          "indexed": false,
          "name": "_quotation",
          "type": "uint256"
        }
      ],
      "name": "MatchCreation",
      "type": "event",
      "signature": "0xe0c66af4dab8647ae1215a04c971305795bbadd88327f3d09b1825194463ac14"
    },
    {
      "anonymous": false,
      "inputs": [
        {
          "indexed": false,
          "name": "match_id",
          "type": "uint256"
        },
        {
          "indexed": false,
          "name": "matchState",
          "type": "uint256"
        }
      ],
      "name": "ResolvedMatch",
      "type": "event",
      "signature": "0xab81154e348961c367baafa6aca8ce7ff912f9b59b27cae996a966758007ebfc"
    },
    {
      "anonymous": false,
      "inputs": [
        {
          "indexed": false,
          "name": "match_id",
          "type": "uint256"
        },
        {
          "indexed": false,
          "name": "homeVictory",
          "type": "bool"
        },
        {
          "indexed": false,
          "name": "equality",
          "type": "bool"
        },
        {
          "indexed": false,
          "name": "matchState",
          "type": "uint256"
        }
      ],
      "name": "debugResolvedMatch",
      "type": "event",
      "signature": "0x49b19ca92a349fdc5d24d51a874e9da53bcbe35d83cfc9e6227026942d78ad94"
    },
    {
      "constant": false,
      "inputs": [
        {
          "name": "_homeTeam",
          "type": "string"
        },
        {
          "name": "_externalTeam",
          "type": "string"
        },
        {
          "name": "_label",
          "type": "string"
        },
        {
          "name": "_date",
          "type": "uint256"
        },
        {
          "name": "_quotation",
          "type": "uint256"
        }
      ],
      "name": "createMatch",
      "outputs": [],
      "payable": false,
      "stateMutability": "nonpayable",
      "type": "function",
      "signature": "0x8a4c8118"
    },
    {
      "constant": false,
      "inputs": [
        {
          "name": "_match_id",
          "type": "uint256"
        },
        {
          "name": "_homeVictory",
          "type": "bool"
        },
        {
          "name": "_equality",
          "type": "bool"
        }
      ],
      "name": "resolveMatch",
      "outputs": [],
      "payable": false,
      "stateMutability": "nonpayable",
      "type": "function",
      "signature": "0xb6a2bee9"
    }
  ],
  "bytecode": "0x60806040526000600255336000806101000a81548173ffffffffffffffffffffffffffffffffffffffff021916908373ffffffffffffffffffffffffffffffffffffffff160217905550610d9c806100586000396000f3fe60806040526004361061006d576000357c0100000000000000000000000000000000000000000000000000000000900463ffffffff16806317c4ecfb146100725780638a4c8118146100b55780638da5cb5b146100de578063a2f0883914610109578063b6a2bee914610134575b600080fd5b34801561007e57600080fd5b50610099600480360361009491908101906109c6565b61015d565b6040516100ac9796959493929190610bd1565b60405180910390f35b3480156100c157600080fd5b506100dc60048036036100d791908101906108fa565b610383565b005b3480156100ea57600080fd5b506100f361061f565b6040516101009190610ada565b60405180910390f35b34801561011557600080fd5b5061011e610644565b60405161012b9190610b71565b60405180910390f35b34801561014057600080fd5b5061015b600480360361015691908101906109ef565b61064a565b005b60018181548110151561016c57fe5b9060005260206000209060070201600091509050806000015490806001018054600181600116156101000203166002900480601f01602080910402602001604051908101604052809291908181526020018280546001816001161561010002031660029004801561021e5780601f106101f35761010080835404028352916020019161021e565b820191906000526020600020905b81548152906001019060200180831161020157829003601f168201915b505050505090806002018054600181600116156101000203166002900480601f0160208091040260200160405190810160405280929190818152602001828054600181600116156101000203166002900480156102bc5780601f10610291576101008083540402835291602001916102bc565b820191906000526020600020905b81548152906001019060200180831161029f57829003601f168201915b5050505050908060030160009054906101000a900460ff1690806004018054600181600116156101000203166002900480601f01602080910402602001604051908101604052809291908181526020018280546001816001161561010002031660029004801561036d5780601f106103425761010080835404028352916020019161036d565b820191906000526020600020905b81548152906001019060200180831161035057829003601f168201915b5050505050908060050154908060060154905087565b3373ffffffffffffffffffffffffffffffffffffffff166000809054906101000a900473ffffffffffffffffffffffffffffffffffffffff1673ffffffffffffffffffffffffffffffffffffffff161415156103de57600080fd5b6002600081548092919060010191905055507fe0c66af4dab8647ae1215a04c971305795bbadd88327f3d09b1825194463ac14888888888888886002548960405161043199989796959493929190610af5565b60405180910390a1600160e06040519081016040528060025481526020018a8a8080601f016020809104026020016040519081016040528093929190818152602001838380828437600081840152601f19601f82011690508083019250505050505050815260200188888080601f016020809104026020016040519081016040528093929190818152602001838380828437600081840152601f19601f820116905080830192505050505050508152602001600060038111156104f057fe5b815260200186868080601f016020809104026020016040519081016040528093929190818152602001838380828437600081840152601f19601f820116905080830192505050505050508152602001848152602001838152509080600181540180825580915050906001820390600052602060002090600702016000909192909190915060008201518160000155602082015181600101908051906020019061059a9291906107e1565b5060408201518160020190805190602001906105b79291906107e1565b5060608201518160030160006101000a81548160ff021916908360038111156105dc57fe5b021790555060808201518160040190805190602001906105fd9291906107e1565b5060a0820151816005015560c082015181600601555050505050505050505050565b6000809054906101000a900473ffffffffffffffffffffffffffffffffffffffff1681565b60025481565b6000600180850381548110151561065d57fe5b906000526020600020906007020190507f49b19ca92a349fdc5d24d51a874e9da53bcbe35d83cfc9e6227026942d78ad948484848460030160009054906101000a900460ff1660038111156106ae57fe5b6040516106be9493929190610b8c565b60405180910390a1600060038111156106d357fe5b8160030160009054906101000a900460ff1660038111156106f057fe5b1415156106fc57600080fd5b821561072d5760018160030160006101000a81548160ff0219169083600381111561072357fe5b0217905550610786565b811561075e5760038160030160006101000a81548160ff0219169083600381111561075457fe5b0217905550610785565b60028160030160006101000a81548160ff0219169083600381111561077f57fe5b02179055505b5b7fab81154e348961c367baafa6aca8ce7ff912f9b59b27cae996a966758007ebfc848260030160009054906101000a900460ff1660038111156107c557fe5b6040516107d3929190610c55565b60405180910390a150505050565b828054600181600116156101000203166002900490600052602060002090601f016020900481019282601f1061082257805160ff1916838001178555610850565b82800160010185558215610850579182015b8281111561084f578251825591602001919060010190610834565b5b50905061085d9190610861565b5090565b61088391905b8082111561087f576000816000905550600101610867565b5090565b90565b60006108928235610ce7565b905092915050565b60008083601f84011215156108ae57600080fd5b8235905067ffffffffffffffff8111156108c757600080fd5b6020830191508360018202830111156108df57600080fd5b9250929050565b60006108f28235610cf3565b905092915050565b60008060008060008060008060a0898b03121561091657600080fd5b600089013567ffffffffffffffff81111561093057600080fd5b61093c8b828c0161089a565b9850985050602089013567ffffffffffffffff81111561095b57600080fd5b6109678b828c0161089a565b9650965050604089013567ffffffffffffffff81111561098657600080fd5b6109928b828c0161089a565b945094505060606109a58b828c016108e6565b92505060806109b68b828c016108e6565b9150509295985092959890939650565b6000602082840312156109d857600080fd5b60006109e6848285016108e6565b91505092915050565b600080600060608486031215610a0457600080fd5b6000610a12868287016108e6565b9350506020610a2386828701610886565b9250506040610a3486828701610886565b9150509250925092565b610a4781610c89565b82525050565b610a5681610c9b565b82525050565b610a6581610cfd565b82525050565b6000828452602084019350610a81838584610d0f565b610a8a83610d51565b840190509392505050565b6000610aa082610c7e565b808452610ab4816020860160208601610d1e565b610abd81610d51565b602085010191505092915050565b610ad481610cdd565b82525050565b6000602082019050610aef6000830184610a3e565b92915050565b600060c0820190508181036000830152610b10818b8d610a6b565b90508181036020830152610b2581898b610a6b565b90508181036040830152610b3a818789610a6b565b9050610b496060830186610acb565b610b566080830185610acb565b610b6360a0830184610acb565b9a9950505050505050505050565b6000602082019050610b866000830184610acb565b92915050565b6000608082019050610ba16000830187610acb565b610bae6020830186610a4d565b610bbb6040830185610a4d565b610bc86060830184610acb565b95945050505050565b600060e082019050610be6600083018a610acb565b8181036020830152610bf88189610a95565b90508181036040830152610c0c8188610a95565b9050610c1b6060830187610a5c565b8181036080830152610c2d8186610a95565b9050610c3c60a0830185610acb565b610c4960c0830184610acb565b98975050505050505050565b6000604082019050610c6a6000830185610acb565b610c776020830184610acb565b9392505050565b600081519050919050565b6000610c9482610cbd565b9050919050565b60008115159050919050565b6000600482101515610cb557fe5b819050919050565b600073ffffffffffffffffffffffffffffffffffffffff82169050919050565b6000819050919050565b60008115159050919050565b6000819050919050565b6000610d0882610ca7565b9050919050565b82818337600083830152505050565b60005b83811015610d3c578082015181840152602081019050610d21565b83811115610d4b576000848401525b50505050565b6000601f19601f830116905091905056fea265627a7a72305820cc182907e9bbe15770cd4aa43c6016d9e366af2f1d1d464eac34824f63dc989f6c6578706572696d656e74616cf50037",
  "source": "pragma solidity 0.5.0;\r\npragma experimental ABIEncoderV2;\r\n\r\ncontract Betting{\r\n    address public owner;\r\n\r\n    Match[] public matchs;\r\n\r\n    uint public matchIDGenerator = 0;\r\n\r\n    enum MatchState {UNSETTLED,HOME_VICTORY,CHALLENGER_VICTORY, EQUALITY}\r\n\r\n    struct Match {\r\n        uint id;\r\n        string homeTeam;\r\n        string externalTeam;\r\n        MatchState matchState;\r\n        string label;\r\n        uint256 date; \r\n        uint quotation;\r\n    }\r\n    \r\n    constructor() public payable{\r\n        owner = msg.sender;\r\n    }\r\n  \r\n    event MatchCreation(string _homeTeam, string _externalTeam, string _label, uint256 _date, uint _matchIDGenerator, uint _quotation);\r\n\r\n    function createMatch(string calldata _homeTeam, string calldata _externalTeam, string calldata _label, uint256 _date, uint _quotation) external {\r\n        require(owner == msg.sender);\r\n        matchIDGenerator++;\r\n        emit MatchCreation(_homeTeam, _externalTeam, _label, _date, matchIDGenerator, _quotation);\r\n        matchs.push(Match(matchIDGenerator, _homeTeam, _externalTeam, MatchState.UNSETTLED, _label, _date, _quotation));\r\n    }\r\n\r\n    event ResolvedMatch(uint match_id, uint matchState);\r\n    event debugResolvedMatch(uint match_id, bool homeVictory, bool equality, uint matchState);\r\n    function resolveMatch(uint _match_id, bool _homeVictory, bool _equality) external {   \r\n        Match storage currentMatch = matchs[_match_id-1];\r\n        emit debugResolvedMatch(_match_id, _homeVictory, _equality, uint(currentMatch.matchState));\r\n        require(currentMatch.matchState == MatchState.UNSETTLED);\r\n        if(_homeVictory){\r\n            currentMatch.matchState = MatchState.HOME_VICTORY;\r\n        } else if (_equality){\r\n            currentMatch.matchState = MatchState.EQUALITY;\r\n        } else {\r\n            currentMatch.matchState = MatchState.CHALLENGER_VICTORY;\r\n        }\r\n        emit ResolvedMatch(_match_id, uint(currentMatch.matchState));\r\n    }\r\n}",
  "sourcePath": "C:/Users/benja/formation-ethereum-basics/Exercices/corrections/TP05/contracts/Betting.sol",
  "compiler": {
    "name": "solc",
    "version": "0.5.0+commit.1d4f565a.Emscripten.clang"
  },
  "schemaVersion": "3.0.2",
  "updatedAt": "2019-05-28T10:17:45.100Z",
  "devdoc": {
    "methods": {}
  },
  "userdoc": {
    "methods": {}
  }
}