{
  "contractName": "Betting",
  "abi": [
    {
      "constant": true,
      "inputs": [
        {
          "name": "",
          "type": "uint256"
        }
      ],
      "name": "matchs",
      "outputs": [
        {
          "name": "id",
          "type": "uint256"
        },
        {
          "name": "homeTeam",
          "type": "string"
        },
        {
          "name": "externalTeam",
          "type": "string"
        },
        {
          "name": "homeVictory",
          "type": "bool"
        },
        {
          "name": "equality",
          "type": "bool"
        },
        {
          "name": "libelle",
          "type": "string"
        },
        {
          "name": "date",
          "type": "uint256"
        },
        {
          "name": "settled",
          "type": "bool"
        },
        {
          "name": "quotation",
          "type": "uint256"
        }
      ],
      "payable": false,
      "stateMutability": "view",
      "type": "function"
    },
    {
      "constant": true,
      "inputs": [],
      "name": "owner",
      "outputs": [
        {
          "name": "",
          "type": "address"
        }
      ],
      "payable": false,
      "stateMutability": "view",
      "type": "function"
    },
    {
      "constant": true,
      "inputs": [],
      "name": "matchIDGenerator",
      "outputs": [
        {
          "name": "",
          "type": "uint256"
        }
      ],
      "payable": false,
      "stateMutability": "view",
      "type": "function"
    },
    {
      "inputs": [],
      "payable": true,
      "stateMutability": "payable",
      "type": "constructor"
    },
    {
      "anonymous": false,
      "inputs": [
        {
          "indexed": false,
          "name": "_homeTeam",
          "type": "string"
        },
        {
          "indexed": false,
          "name": "_externalTeam",
          "type": "string"
        },
        {
          "indexed": false,
          "name": "_libelle",
          "type": "string"
        },
        {
          "indexed": false,
          "name": "_date",
          "type": "uint256"
        },
        {
          "indexed": false,
          "name": "_matchIDGenerator",
          "type": "uint256"
        },
        {
          "indexed": false,
          "name": "_quotation",
          "type": "uint256"
        }
      ],
      "name": "CreateMatch",
      "type": "event"
    },
    {
      "anonymous": false,
      "inputs": [
        {
          "indexed": false,
          "name": "bettor",
          "type": "address"
        },
        {
          "indexed": false,
          "name": "_homeVictory",
          "type": "bool"
        },
        {
          "indexed": false,
          "name": "_equality",
          "type": "bool"
        },
        {
          "indexed": false,
          "name": "match_id",
          "type": "uint256"
        },
        {
          "indexed": false,
          "name": "amount",
          "type": "uint256"
        }
      ],
      "name": "BetOnMatch",
      "type": "event"
    },
    {
      "anonymous": false,
      "inputs": [
        {
          "indexed": false,
          "name": "bettor",
          "type": "address"
        },
        {
          "indexed": false,
          "name": "gain",
          "type": "uint256"
        },
        {
          "indexed": false,
          "name": "amount",
          "type": "uint256"
        },
        {
          "indexed": false,
          "name": "quotation",
          "type": "uint256"
        }
      ],
      "name": "ResolvedBet",
      "type": "event"
    },
    {
      "anonymous": false,
      "inputs": [
        {
          "indexed": false,
          "name": "match_id",
          "type": "uint256"
        },
        {
          "indexed": false,
          "name": "homeVictory",
          "type": "bool"
        },
        {
          "indexed": false,
          "name": "equality",
          "type": "bool"
        }
      ],
      "name": "ResolvedMatch",
      "type": "event"
    },
    {
      "anonymous": false,
      "inputs": [
        {
          "indexed": false,
          "name": "match_id",
          "type": "uint256"
        },
        {
          "indexed": false,
          "name": "homeVictory",
          "type": "bool"
        },
        {
          "indexed": false,
          "name": "equality",
          "type": "bool"
        },
        {
          "indexed": false,
          "name": "settled",
          "type": "bool"
        }
      ],
      "name": "debugResolvedMatch",
      "type": "event"
    },
    {
      "anonymous": false,
      "inputs": [
        {
          "indexed": false,
          "name": "bettor",
          "type": "address"
        },
        {
          "indexed": false,
          "name": "amount",
          "type": "uint256"
        },
        {
          "indexed": false,
          "name": "homeVictory",
          "type": "bool"
        },
        {
          "indexed": false,
          "name": "equality",
          "type": "bool"
        }
      ],
      "name": "BetTreatment",
      "type": "event"
    },
    {
      "constant": true,
      "inputs": [
        {
          "name": "better",
          "type": "address"
        }
      ],
      "name": "getMatchIdsByBetter",
      "outputs": [
        {
          "name": "",
          "type": "uint256[]"
        }
      ],
      "payable": false,
      "stateMutability": "view",
      "type": "function"
    },
    {
      "constant": true,
      "inputs": [
        {
          "name": "better",
          "type": "address"
        }
      ],
      "name": "getUserBets",
      "outputs": [
        {
          "name": "",
          "type": "uint256[]"
        },
        {
          "name": "",
          "type": "uint256[]"
        },
        {
          "name": "",
          "type": "bool[]"
        },
        {
          "name": "",
          "type": "bool[]"
        }
      ],
      "payable": false,
      "stateMutability": "view",
      "type": "function"
    },
    {
      "constant": true,
      "inputs": [],
      "name": "getMatchsLenght",
      "outputs": [
        {
          "name": "",
          "type": "uint256"
        }
      ],
      "payable": false,
      "stateMutability": "view",
      "type": "function"
    },
    {
      "constant": false,
      "inputs": [
        {
          "name": "_homeTeam",
          "type": "string"
        },
        {
          "name": "_externalTeam",
          "type": "string"
        },
        {
          "name": "_libelle",
          "type": "string"
        },
        {
          "name": "_date",
          "type": "uint256"
        },
        {
          "name": "_quotation",
          "type": "uint256"
        }
      ],
      "name": "createMatch",
      "outputs": [],
      "payable": false,
      "stateMutability": "nonpayable",
      "type": "function"
    },
    {
      "constant": false,
      "inputs": [
        {
          "name": "_homeVictory",
          "type": "bool"
        },
        {
          "name": "_equality",
          "type": "bool"
        },
        {
          "name": "match_id",
          "type": "uint256"
        }
      ],
      "name": "betOnMatch",
      "outputs": [],
      "payable": true,
      "stateMutability": "payable",
      "type": "function"
    },
    {
      "constant": false,
      "inputs": [
        {
          "name": "_match_id",
          "type": "uint256"
        },
        {
          "name": "_homeVictory",
          "type": "bool"
        },
        {
          "name": "_equality",
          "type": "bool"
        }
      ],
      "name": "resolveMatch",
      "outputs": [],
      "payable": false,
      "stateMutability": "nonpayable",
      "type": "function"
    }
  ],
  "bytecode": "0x60806040526000600255336000806101000a81548173ffffffffffffffffffffffffffffffffffffffff021916908373ffffffffffffffffffffffffffffffffffffffff160217905550611d4f806100586000396000f3fe608060405260043610610099576000357c0100000000000000000000000000000000000000000000000000000000900463ffffffff16806317c4ecfb1461009e5780632d56657d146100e35780638a3b96b3146101235780638a4c8118146101605780638da5cb5b14610189578063a2f08839146101b4578063ad0f419a146101df578063b0d97619146101fb578063b6a2bee914610226575b600080fd5b3480156100aa57600080fd5b506100c560048036036100c091908101906116cd565b61024f565b6040516100da99989796959493929190611b25565b60405180910390f35b3480156100ef57600080fd5b5061010a60048036036101059190810190611589565b61049b565b60405161011a94939291906119b1565b60405180910390f35b34801561012f57600080fd5b5061014a60048036036101459190810190611589565b6107f7565b604051610157919061198f565b60405180910390f35b34801561016c57600080fd5b5061018760048036036101829190810190611601565b610955565b005b34801561019557600080fd5b5061019e610c2e565b6040516101ab9190611897565b60405180910390f35b3480156101c057600080fd5b506101c9610c53565b6040516101d69190611a8e565b60405180910390f35b6101f960048036036101f491908101906115b2565b610c59565b005b34801561020757600080fd5b50610210610ed0565b60405161021d9190611a8e565b60405180910390f35b34801561023257600080fd5b5061024d600480360361024891908101906116f6565b610edd565b005b60018181548110151561025e57fe5b9060005260206000209060080201600091509050806000015490806001018054600181600116156101000203166002900480601f0160208091040260200160405190810160405280929190818152602001828054600181600116156101000203166002900480156103105780601f106102e557610100808354040283529160200191610310565b820191906000526020600020905b8154815290600101906020018083116102f357829003601f168201915b505050505090806002018054600181600116156101000203166002900480601f0160208091040260200160405190810160405280929190818152602001828054600181600116156101000203166002900480156103ae5780601f10610383576101008083540402835291602001916103ae565b820191906000526020600020905b81548152906001019060200180831161039157829003601f168201915b5050505050908060030160009054906101000a900460ff16908060030160019054906101000a900460ff1690806004018054600181600116156101000203166002900480601f0160208091040260200160405190810160405280929190818152602001828054600181600116156101000203166002900480156104725780601f1061044757610100808354040283529160200191610472565b820191906000526020600020905b81548152906001019060200180831161045557829003601f168201915b5050505050908060050154908060060160009054906101000a900460ff16908060070154905089565b6060806060806060600360008773ffffffffffffffffffffffffffffffffffffffff1673ffffffffffffffffffffffffffffffffffffffff168152602001908152602001600020805490506040519080825280602002602001820160405280156105145781602001602082028038833980820191505090505b5090506060600360008873ffffffffffffffffffffffffffffffffffffffff1673ffffffffffffffffffffffffffffffffffffffff1681526020019081526020016000208054905060405190808252806020026020018201604052801561058a5781602001602082028038833980820191505090505b5090506060600360008973ffffffffffffffffffffffffffffffffffffffff1673ffffffffffffffffffffffffffffffffffffffff168152602001908152602001600020805490506040519080825280602002602001820160405280156106005781602001602082028038833980820191505090505b5090506060600360008a73ffffffffffffffffffffffffffffffffffffffff1673ffffffffffffffffffffffffffffffffffffffff168152602001908152602001600020805490506040519080825280602002602001820160405280156106765781602001602082028038833980820191505090505b50905060008090505b600360008b73ffffffffffffffffffffffffffffffffffffffff1673ffffffffffffffffffffffffffffffffffffffff168152602001908152602001600020805490508110156107df576000600360008c73ffffffffffffffffffffffffffffffffffffffff1673ffffffffffffffffffffffffffffffffffffffff1681526020019081526020016000208281548110151561071757fe5b906000526020600020906004020190508060010154868381518110151561073a57fe5b90602001906020020181815250508060020154858381518110151561075b57fe5b90602001906020020181815250508060030160009054906101000a900460ff16848381518110151561078957fe5b90602001906020020190151590811515815250508060030160019054906101000a900460ff1683838151811015156107bd57fe5b906020019060200201901515908115158152505050808060010191505061067f565b50838383839750975097509750505050509193509193565b606080600360008473ffffffffffffffffffffffffffffffffffffffff1673ffffffffffffffffffffffffffffffffffffffff1681526020019081526020016000208054905060405190808252806020026020018201604052801561086b5781602001602082028038833980820191505090505b50905060008090505b600360008573ffffffffffffffffffffffffffffffffffffffff1673ffffffffffffffffffffffffffffffffffffffff1681526020019081526020016000208054905081101561094b576000600360008673ffffffffffffffffffffffffffffffffffffffff1673ffffffffffffffffffffffffffffffffffffffff1681526020019081526020016000208281548110151561090c57fe5b906000526020600020906004020190508060020154838381518110151561092f57fe5b9060200190602002018181525050508080600101915050610874565b5080915050919050565b6000809054906101000a900473ffffffffffffffffffffffffffffffffffffffff1673ffffffffffffffffffffffffffffffffffffffff163373ffffffffffffffffffffffffffffffffffffffff161415610c24576002600081548092919060010191905055507fd88dcb043cda1ce22f74fdbb6db836f83b813e2de9e4d350b85f98fcf248f66288888888888888600254896040516109fd99989796959493929190611a12565b60405180910390a160016101206040519081016040528060025481526020018a8a8080601f016020809104026020016040519081016040528093929190818152602001838380828437600081840152601f19601f82011690508083019250505050505050815260200188888080601f016020809104026020016040519081016040528093929190818152602001838380828437600081840152601f19601f82011690508083019250505050505050815260200160011515815260200160011515815260200186868080601f016020809104026020016040519081016040528093929190818152602001838380828437600081840152601f19601f8201169050808301925050505050505081526020018481526020016000151581526020018381525090806001815401808255809150509060018203906000526020600020906008020160009091929091909150600082015181600001556020820151816001019080519060200190610b70929190611412565b506040820151816002019080519060200190610b8d929190611412565b5060608201518160030160006101000a81548160ff02191690831515021790555060808201518160030160016101000a81548160ff02191690831515021790555060a0820151816004019080519060200190610bea929190611412565b5060c0820151816005015560e08201518160060160006101000a81548160ff02191690831515021790555061010082015181600701555050505b5050505050505050565b6000809054906101000a900473ffffffffffffffffffffffffffffffffffffffff1681565b60025481565b610c61611492565b60a0604051908101604052803373ffffffffffffffffffffffffffffffffffffffff16815260200134815260200183815260200185151581526020018415158152509050600360003373ffffffffffffffffffffffffffffffffffffffff1673ffffffffffffffffffffffffffffffffffffffff168152602001908152602001600020819080600181540180825580915050906001820390600052602060002090600402016000909192909190915060008201518160000160006101000a81548173ffffffffffffffffffffffffffffffffffffffff021916908373ffffffffffffffffffffffffffffffffffffffff160217905550602082015181600101556040820151816002015560608201518160030160006101000a81548160ff02191690831515021790555060808201518160030160016101000a81548160ff02191690831515021790555050505060046000838152602001908152602001600020819080600181540180825580915050906001820390600052602060002090600402016000909192909190915060008201518160000160006101000a81548173ffffffffffffffffffffffffffffffffffffffff021916908373ffffffffffffffffffffffffffffffffffffffff160217905550602082015181600101556040820151816002015560608201518160030160006101000a81548160ff02191690831515021790555060808201518160030160016101000a81548160ff0219169083151502179055505050507fd15141d57febf8eb178a153d4df30b9e986504ea8b9d0a21c552326c777ef6083385858534604051610ec29594939291906118b2565b60405180910390a150505050565b6000600180549050905090565b6000809054906101000a900473ffffffffffffffffffffffffffffffffffffffff1673ffffffffffffffffffffffffffffffffffffffff163373ffffffffffffffffffffffffffffffffffffffff16141561140d577f84af019da6fca228bdd1188cddaea91fccceea205044627f112a31585f460f1d838383604051610f6593929190611aa9565b60405180910390a160006001808503815481101515610f8057fe5b906000526020600020906008020190507f573b883fd5c03dbc56c40c2bf54a93ad3f852a292e93fa972a8945b69d4727688484848460060160009054906101000a900460ff16604051610fd69493929190611ae0565b60405180910390a18060060160009054906101000a900460ff16151515610ffc57600080fd5b60018160060160006101000a81548160ff021916908315150217905550828160030160006101000a81548160ff021916908315150217905550818160030160016101000a81548160ff021916908315150217905550600060046000868152602001908152602001600020905060008090505b81805490508110156113ce577f8e8a1e9bdc65d6318d9facacc604e53af0cb6cf57028f42832370d475d36c12f82828154811015156110a957fe5b906000526020600020906004020160000160009054906101000a900473ffffffffffffffffffffffffffffffffffffffff1683838154811015156110e957fe5b906000526020600020906004020160010154848481548110151561110957fe5b906000526020600020906004020160030160009054906101000a900460ff16858581548110151561113657fe5b906000526020600020906004020160030160019054906101000a900460ff166040516111659493929190611905565b60405180910390a18480156111a35750818181548110151561118357fe5b906000526020600020906004020160030160009054906101000a900460ff165b806111e057508380156111df575081818154811015156111bf57fe5b906000526020600020906004020160030160019054906101000a900460ff165b5b8061125f5750841580156111f2575083155b80156112285750818181548110151561120757fe5b906000526020600020906004020160030160009054906101000a900460ff16155b801561125e5750818181548110151561123d57fe5b906000526020600020906004020160030160019054906101000a900460ff16155b5b156113c157600060648460070154848481548110151561127b57fe5b9060005260206000209060040201600101540281151561129757fe5b04905082828154811015156112a857fe5b906000526020600020906004020160000160009054906101000a900473ffffffffffffffffffffffffffffffffffffffff1673ffffffffffffffffffffffffffffffffffffffff166108fc829081150290604051600060405180830381858888f1935050505015801561131f573d6000803e3d6000fd5b507f4dede43daf683939382b03ae4f73efb2a94c24f90dc41d659371f00fadb3936f838381548110151561134f57fe5b906000526020600020906004020160000160009054906101000a900473ffffffffffffffffffffffffffffffffffffffff1682858581548110151561139057fe5b90600052602060002090600402016001015487600701546040516113b7949392919061194a565b60405180910390a1505b808060010191505061106e565b507f84af019da6fca228bdd1188cddaea91fccceea205044627f112a31585f460f1d85858560405161140293929190611aa9565b60405180910390a150505b505050565b828054600181600116156101000203166002900490600052602060002090601f016020900481019282601f1061145357805160ff1916838001178555611481565b82800160010185558215611481579182015b82811115611480578251825591602001919060010190611465565b5b50905061148e91906114dc565b5090565b60a060405190810160405280600073ffffffffffffffffffffffffffffffffffffffff16815260200160008152602001600081526020016000151581526020016000151581525090565b6114fe91905b808211156114fa5760008160009055506001016114e2565b5090565b90565b600061150d8235611c64565b905092915050565b60006115218235611c76565b905092915050565b60008083601f840112151561153d57600080fd5b8235905067ffffffffffffffff81111561155657600080fd5b60208301915083600182028301111561156e57600080fd5b9250929050565b60006115818235611c82565b905092915050565b60006020828403121561159b57600080fd5b60006115a984828501611501565b91505092915050565b6000806000606084860312156115c757600080fd5b60006115d586828701611515565b93505060206115e686828701611515565b92505060406115f786828701611575565b9150509250925092565b60008060008060008060008060a0898b03121561161d57600080fd5b600089013567ffffffffffffffff81111561163757600080fd5b6116438b828c01611529565b9850985050602089013567ffffffffffffffff81111561166257600080fd5b61166e8b828c01611529565b9650965050604089013567ffffffffffffffff81111561168d57600080fd5b6116998b828c01611529565b945094505060606116ac8b828c01611575565b92505060806116bd8b828c01611575565b9150509295985092959890939650565b6000602082840312156116df57600080fd5b60006116ed84828501611575565b91505092915050565b60008060006060848603121561170b57600080fd5b600061171986828701611575565b935050602061172a86828701611515565b925050604061173b86828701611515565b9150509250925092565b61174e81611c8c565b82525050565b61175d81611c1c565b82525050565b600061176e82611be1565b80845260208401935061178083611bc7565b60005b828110156117b257611796868351611819565b61179f82611c02565b9150602086019550600181019050611783565b50849250505092915050565b60006117c982611bec565b8084526020840193506117db83611bd4565b60005b8281101561180d576117f1868351611888565b6117fa82611c0f565b91506020860195506001810190506117de565b50849250505092915050565b61182281611c2e565b82525050565b600082845260208401935061183e838584611cc2565b61184783611d04565b840190509392505050565b600061185d82611bf7565b808452611871816020860160208601611cd1565b61187a81611d04565b602085010191505092915050565b61189181611c5a565b82525050565b60006020820190506118ac6000830184611754565b92915050565b600060a0820190506118c76000830188611745565b6118d46020830187611819565b6118e16040830186611819565b6118ee6060830185611888565b6118fb6080830184611888565b9695505050505050565b600060808201905061191a6000830187611745565b6119276020830186611888565b6119346040830185611819565b6119416060830184611819565b95945050505050565b600060808201905061195f6000830187611745565b61196c6020830186611888565b6119796040830185611888565b6119866060830184611888565b95945050505050565b600060208201905081810360008301526119a981846117be565b905092915050565b600060808201905081810360008301526119cb81876117be565b905081810360208301526119df81866117be565b905081810360408301526119f38185611763565b90508181036060830152611a078184611763565b905095945050505050565b600060c0820190508181036000830152611a2d818b8d611828565b90508181036020830152611a4281898b611828565b90508181036040830152611a57818789611828565b9050611a666060830186611888565b611a736080830185611888565b611a8060a0830184611888565b9a9950505050505050505050565b6000602082019050611aa36000830184611888565b92915050565b6000606082019050611abe6000830186611888565b611acb6020830185611819565b611ad86040830184611819565b949350505050565b6000608082019050611af56000830187611888565b611b026020830186611819565b611b0f6040830185611819565b611b1c6060830184611819565b95945050505050565b600061012082019050611b3b600083018c611888565b8181036020830152611b4d818b611852565b90508181036040830152611b61818a611852565b9050611b706060830189611819565b611b7d6080830188611819565b81810360a0830152611b8f8187611852565b9050611b9e60c0830186611888565b611bab60e0830185611819565b611bb9610100830184611888565b9a9950505050505050505050565b6000602082019050919050565b6000602082019050919050565b600081519050919050565b600081519050919050565b600081519050919050565b6000602082019050919050565b6000602082019050919050565b6000611c2782611c3a565b9050919050565b60008115159050919050565b600073ffffffffffffffffffffffffffffffffffffffff82169050919050565b6000819050919050565b6000611c6f82611c3a565b9050919050565b60008115159050919050565b6000819050919050565b6000611c9782611c9e565b9050919050565b6000611ca982611cb0565b9050919050565b6000611cbb82611c3a565b9050919050565b82818337600083830152505050565b60005b83811015611cef578082015181840152602081019050611cd4565b83811115611cfe576000848401525b50505050565b6000601f19601f830116905091905056fea265627a7a723058201a188d640a93f229b2fb541c51b1fd490af535d38c413487063db6b0f0769e006c6578706572696d656e74616cf50037",
  "source": "pragma solidity 0.5.0;\npragma experimental ABIEncoderV2;\n\ncontract Betting{\n    // hritage: contract Bet -> SoccerBet\n    // mortal.sol & owned.sol -> https://github.com/Apress/introducing-ethereum-solidity\n    // crer un smart contract maintenable\n    // crer un token lie  l'application ??? voir la difficulte\n    // un oracle (diffrentes sources de donnes) qui va recuprer les matchs de foot des 7 prochains jours\n    \n    address public owner;\n\n    Match[] public matchs;\n    \n    uint public matchIDGenerator = 0;\n\n    struct Match {\n        uint id;\n        string homeTeam;\n        string externalTeam;\n        bool homeVictory;\n        bool equality;\n        string libelle;\n        uint256 date; \n        bool settled;\n        uint quotation;\n    }\n\n    struct Bet {\n        address payable bettor;\n        uint amount;\n        uint match_id;\n        bool homeVictoryBet;\n        bool equalityBet;\n    }\n\n    mapping(address => Bet[]) addressToBets;\n    mapping(uint => Bet[]) betsOnMatch;\n\n    constructor() public payable{\n        owner = msg.sender;\n    }\n \n    // event LogBet(uint _amount, uint _match_id, string _result, string _homeTeam, string _externalTeam);\n\n    function getMatchIdsByBetter(address better)\n        public view returns(uint[] memory) {\n        uint[] memory match_ids = new uint[](addressToBets[better].length);\n        for (uint i = 0; i < addressToBets[better].length; i++) {\n            Bet storage bet = addressToBets[better][i];\n            match_ids[i] = bet.match_id;\n        }\n        return (match_ids);\n    }\n\n    function getUserBets(address better) \n        public view returns(uint[] memory, uint[] memory, bool[] memory, bool[] memory) {\n        uint[] memory amounts = new uint[](addressToBets[better].length);\n        uint[] memory match_ids = new uint[](addressToBets[better].length);\n        bool[] memory homeVictoryBets = new bool[](addressToBets[better].length);\n        bool[] memory equalityBets = new bool[](addressToBets[better].length);\n        \n        for (uint i = 0; i < addressToBets[better].length; i++) {\n            Bet storage bet =  addressToBets[better][i];\n            amounts[i] = bet.amount;\n            match_ids[i] = bet.match_id;\n            homeVictoryBets[i] = bet.homeVictoryBet;\n            equalityBets[i] = bet.equalityBet;\n        }\n        \n        return (amounts, match_ids, homeVictoryBets, equalityBets);  \n    }\n\n    function getMatchsLenght() public view returns(uint) { return matchs.length; }\n\n    event CreateMatch(string _homeTeam, string _externalTeam, string _libelle, uint256 _date, uint _matchIDGenerator, uint _quotation);\n    \n    modifier onlyowner { if (msg.sender == owner) _; }\n     \n    function createMatch(string calldata _homeTeam, string calldata _externalTeam, string calldata _libelle, uint256 _date, uint _quotation) external onlyowner {\n        matchIDGenerator++;\n        emit CreateMatch(_homeTeam, _externalTeam, _libelle, _date, matchIDGenerator, _quotation);\n        matchs.push(Match(matchIDGenerator, _homeTeam, _externalTeam, true, true, _libelle, _date, false, _quotation));\n    }\n\n    event BetOnMatch(address bettor, bool _homeVictory, bool _equality, uint match_id, uint amount);\n    \n    function betOnMatch(bool _homeVictory, bool _equality, uint match_id) payable external {\n        Bet memory newBet = Bet(msg.sender, msg.value, match_id, _homeVictory, _equality);\n        addressToBets[msg.sender].push(newBet);\n        betsOnMatch[match_id].push(newBet);\n        emit BetOnMatch(msg.sender, _homeVictory, _equality, match_id, msg.value);\n    }\n\n    event ResolvedBet(address bettor, uint gain, uint amount, uint quotation);\n    event ResolvedMatch(uint match_id, bool homeVictory, bool equality);\n    event debugResolvedMatch(uint match_id, bool homeVictory, bool equality, bool settled);\n    event BetTreatment(address bettor, uint amount, bool homeVictory, bool equality);\n    function resolveMatch(uint _match_id, bool _homeVictory, bool _equality) external onlyowner {\n        emit ResolvedMatch(_match_id, _homeVictory, _equality);\n        Match storage currentMatch = matchs[_match_id-1];\n        \n        emit debugResolvedMatch(_match_id, _homeVictory, _equality, currentMatch.settled);\n        require(!currentMatch.settled);\n        currentMatch.settled = true;\n        currentMatch.homeVictory = _homeVictory;\n        currentMatch.equality = _equality;\n        Bet[] storage betsOnCurrentMatch = betsOnMatch[_match_id];\n        for(uint x = 0; x < betsOnCurrentMatch.length; x++ ){\n            emit BetTreatment(betsOnCurrentMatch[x].bettor, betsOnCurrentMatch[x].amount, betsOnCurrentMatch[x].homeVictoryBet, betsOnCurrentMatch[x].equalityBet );\n            if((_homeVictory && betsOnCurrentMatch[x].homeVictoryBet) || \n               (_equality && betsOnCurrentMatch[x].equalityBet) ||\n                (!_homeVictory && !_equality && !betsOnCurrentMatch[x].homeVictoryBet && !betsOnCurrentMatch[x].equalityBet)){\n                uint gain = (betsOnCurrentMatch[x].amount * currentMatch.quotation)/100;\n                betsOnCurrentMatch[x].bettor.transfer(gain);\n                emit ResolvedBet(\n                    betsOnCurrentMatch[x].bettor, \n                    gain, \n                    betsOnCurrentMatch[x].amount, \n                    currentMatch.quotation);\n            }\n        }    \n        emit ResolvedMatch(_match_id, _homeVictory, _equality);\n    }   \n}",
  "sourcePath": "/Users/antoinecellier/projects/blockchain/demo-matinale/contracts/Betting.sol",
  "compiler": {
    "name": "solc",
    "version": "0.5.0+commit.1d4f565a.Emscripten.clang"
  },
  "schemaVersion": "3.0.0",
  "updatedAt": "2019-03-13T09:44:12.466Z",
  "devdoc": {
    "methods": {}
  },
  "userdoc": {
    "methods": {}
  }
}