{
  "contractName": "MyToken",
  "abi": [
    {
      "constant": true,
      "inputs": [],
      "name": "name",
      "outputs": [
        {
          "name": "",
          "type": "string"
        }
      ],
      "payable": false,
      "stateMutability": "view",
      "type": "function"
    },
    {
      "constant": true,
      "inputs": [],
      "name": "decimals",
      "outputs": [
        {
          "name": "",
          "type": "uint8"
        }
      ],
      "payable": false,
      "stateMutability": "view",
      "type": "function"
    },
    {
      "constant": true,
      "inputs": [
        {
          "name": "",
          "type": "address"
        }
      ],
      "name": "balanceOf",
      "outputs": [
        {
          "name": "",
          "type": "uint256"
        }
      ],
      "payable": false,
      "stateMutability": "view",
      "type": "function"
    },
    {
      "constant": true,
      "inputs": [],
      "name": "symbol",
      "outputs": [
        {
          "name": "",
          "type": "string"
        }
      ],
      "payable": false,
      "stateMutability": "view",
      "type": "function"
    },
    {
      "inputs": [
        {
          "name": "_supply",
          "type": "uint256"
        },
        {
          "name": "_name",
          "type": "string"
        },
        {
          "name": "_symbol",
          "type": "string"
        },
        {
          "name": "_decimals",
          "type": "uint8"
        }
      ],
      "payable": false,
      "stateMutability": "nonpayable",
      "type": "constructor"
    },
    {
      "anonymous": false,
      "inputs": [
        {
          "indexed": true,
          "name": "from",
          "type": "address"
        },
        {
          "indexed": true,
          "name": "to",
          "type": "address"
        },
        {
          "indexed": false,
          "name": "value",
          "type": "uint256"
        }
      ],
      "name": "Transfer",
      "type": "event"
    },
    {
      "constant": false,
      "inputs": [
        {
          "name": "_to",
          "type": "address"
        },
        {
          "name": "_value",
          "type": "uint256"
        }
      ],
      "name": "transfer",
      "outputs": [],
      "payable": false,
      "stateMutability": "nonpayable",
      "type": "function"
    },
    {
      "constant": false,
      "inputs": [
        {
          "name": "_value",
          "type": "uint256"
        }
      ],
      "name": "credit",
      "outputs": [],
      "payable": true,
      "stateMutability": "payable",
      "type": "function"
    }
  ],
  "bytecode": "0x608060405234801561001057600080fd5b506040516109e33803806109e38339810180604052608081101561003357600080fd5b8101908080519060200190929190805164010000000081111561005557600080fd5b8281019050602081018481111561006b57600080fd5b815185600182028301116401000000008211171561008857600080fd5b505092919060200180516401000000008111156100a457600080fd5b828101905060208101848111156100ba57600080fd5b81518560018202830111640100000000821117156100d757600080fd5b50509291906020018051906020019092919050505060008414156100fc57620f424093505b83600360003373ffffffffffffffffffffffffffffffffffffffff1673ffffffffffffffffffffffffffffffffffffffff1681526020019081526020016000208190555082600090805190602001906101569291906101d3565b50816001908051906020019061016d9291906101d3565b5033600260016101000a81548173ffffffffffffffffffffffffffffffffffffffff021916908373ffffffffffffffffffffffffffffffffffffffff16021790555080600260006101000a81548160ff021916908360ff16021790555050505050610278565b828054600181600116156101000203166002900490600052602060002090601f016020900481019282601f1061021457805160ff1916838001178555610242565b82800160010185558215610242579182015b82811115610241578251825591602001919060010190610226565b5b50905061024f9190610253565b5090565b61027591905b80821115610271576000816000905550600101610259565b5090565b90565b61075c806102876000396000f3fe608060405260043610610078576000357c0100000000000000000000000000000000000000000000000000000000900463ffffffff16806306fdde031461007d578063313ce5671461010d57806370a082311461013e57806378da744b146101a357806395d89b41146101d1578063a9059cbb14610261575b600080fd5b34801561008957600080fd5b506100926102bc565b6040518080602001828103825283818151815260200191508051906020019080838360005b838110156100d25780820151818401526020810190506100b7565b50505050905090810190601f1680156100ff5780820380516001836020036101000a031916815260200191505b509250505060405180910390f35b34801561011957600080fd5b5061012261035a565b604051808260ff1660ff16815260200191505060405180910390f35b34801561014a57600080fd5b5061018d6004803603602081101561016157600080fd5b81019080803573ffffffffffffffffffffffffffffffffffffffff16906020019092919050505061036d565b6040518082815260200191505060405180910390f35b6101cf600480360360208110156101b957600080fd5b8101908080359060200190929190505050610385565b005b3480156101dd57600080fd5b506101e66104b4565b6040518080602001828103825283818151815260200191508051906020019080838360005b8381101561022657808201518184015260208101905061020b565b50505050905090810190601f1680156102535780820380516001836020036101000a031916815260200191505b509250505060405180910390f35b34801561026d57600080fd5b506102ba6004803603604081101561028457600080fd5b81019080803573ffffffffffffffffffffffffffffffffffffffff16906020019092919080359060200190929190505050610552565b005b60008054600181600116156101000203166002900480601f0160208091040260200160405190810160405280929190818152602001828054600181600116156101000203166002900480156103525780601f1061032757610100808354040283529160200191610352565b820191906000526020600020905b81548152906001019060200180831161033557829003601f168201915b505050505081565b600260009054906101000a900460ff1681565b60036020528060005260406000206000915090505481565b8060036000600260019054906101000a900473ffffffffffffffffffffffffffffffffffffffff1673ffffffffffffffffffffffffffffffffffffffff1673ffffffffffffffffffffffffffffffffffffffff16815260200190815260200160002054101515156103f557600080fd5b8060036000600260019054906101000a900473ffffffffffffffffffffffffffffffffffffffff1673ffffffffffffffffffffffffffffffffffffffff1673ffffffffffffffffffffffffffffffffffffffff1681526020019081526020016000206000828254039250508190555080600360003373ffffffffffffffffffffffffffffffffffffffff1673ffffffffffffffffffffffffffffffffffffffff1681526020019081526020016000206000828254019250508190555050565b60018054600181600116156101000203166002900480601f01602080910402602001604051908101604052809291908181526020018280546001816001161561010002031660029004801561054a5780601f1061051f5761010080835404028352916020019161054a565b820191906000526020600020905b81548152906001019060200180831161052d57829003601f168201915b505050505081565b80600360003373ffffffffffffffffffffffffffffffffffffffff1673ffffffffffffffffffffffffffffffffffffffff1681526020019081526020016000205410151561059f57600080fd5b600360008373ffffffffffffffffffffffffffffffffffffffff1673ffffffffffffffffffffffffffffffffffffffff1681526020019081526020016000205481600360008573ffffffffffffffffffffffffffffffffffffffff1673ffffffffffffffffffffffffffffffffffffffff168152602001908152602001600020540110151561062d57600080fd5b80600360003373ffffffffffffffffffffffffffffffffffffffff1673ffffffffffffffffffffffffffffffffffffffff1681526020019081526020016000206000828254039250508190555080600360008473ffffffffffffffffffffffffffffffffffffffff1673ffffffffffffffffffffffffffffffffffffffff168152602001908152602001600020600082825401925050819055508173ffffffffffffffffffffffffffffffffffffffff163373ffffffffffffffffffffffffffffffffffffffff167fddf252ad1be2c89b69c2b068fc378daa952ba7f163c4a11628f55a4df523b3ef836040518082815260200191505060405180910390a3505056fea165627a7a72305820a514854aee0c5d08759d7268f783f53a67c41f027ba2915fcfb79a1547aba1980029",
  "source": "pragma solidity 0.5.0;\n\ncontract MyToken { \n    /* Public variables of the token */\n    string public name;\n    string public symbol;\n    uint8 public decimals;\n    address owner;\n    /* This creates an array with all balances */\n    mapping (address => uint256) public balanceOf;\n    \n    /* This generates a public event on the blockchain that will notify clients */\n    event Transfer(address indexed from, address indexed to, uint256 value);\n    \n    /* Initializes contract with initial supply tokens to the creator of the contract */\n    constructor(uint256 _supply, string memory _name, string memory _symbol, uint8 _decimals) public {\n        /* if supply not given then generate 1 million of the smallest unit of the token */\n        if (_supply == 0) _supply = 1000000;\n        \n        /* Unless you add other functions these variables will never change */\n        balanceOf[msg.sender] = _supply;\n        name = _name;     \n        symbol = _symbol;\n        owner = msg.sender;\n        /* If you want a divisible token then add the amount of decimals the base unit has  */\n        decimals = _decimals;\n    }\n\n    /* Send coins */\n    function transfer(address _to, uint256 _value) public{\n        /* if the sender doenst have enough balance then stop */\n        require(balanceOf[msg.sender] < _value);\n        require(balanceOf[_to] + _value < balanceOf[_to]);\n        \n        /* Add and subtract new balances */\n        balanceOf[msg.sender] -= _value;\n        balanceOf[_to] += _value;\n        \n        /* Notifiy anyone listening that this transfer took place */\n        emit Transfer(msg.sender, _to, _value);\n    }\n\n    function credit(uint256 _value) payable public{\n        require(balanceOf[owner] >= _value);\n        balanceOf[owner] -= _value;\n        balanceOf[msg.sender] += _value;\n    }\n\n   \n}            \n",
  "sourcePath": "/Users/antoinecellier/projects/blockchain/demo-matinale/contracts/MyToken.sol",
  "compiler": {
    "name": "solc",
    "version": "0.5.0+commit.1d4f565a.Emscripten.clang"
  },
  "schemaVersion": "3.0.0",
  "updatedAt": "2019-03-13T09:44:12.476Z",
  "devdoc": {
    "methods": {}
  },
  "userdoc": {
    "methods": {}
  }
}