{
  "contractName": "Betting",
  "abi": [
    {
      "constant": true,
      "inputs": [
        {
          "name": "",
          "type": "uint256"
        }
      ],
      "name": "matchs",
      "outputs": [
        {
          "name": "id",
          "type": "uint256"
        },
        {
          "name": "homeTeam",
          "type": "string"
        },
        {
          "name": "externalTeam",
          "type": "string"
        },
        {
          "name": "homeVictory",
          "type": "bool"
        },
        {
          "name": "equality",
          "type": "bool"
        },
        {
          "name": "libelle",
          "type": "string"
        },
        {
          "name": "date",
          "type": "uint256"
        },
        {
          "name": "settled",
          "type": "bool"
        },
        {
          "name": "quotation",
          "type": "uint256"
        }
      ],
      "payable": false,
      "stateMutability": "view",
      "type": "function"
    },
    {
      "constant": true,
      "inputs": [],
      "name": "owner",
      "outputs": [
        {
          "name": "",
          "type": "address"
        }
      ],
      "payable": false,
      "stateMutability": "view",
      "type": "function"
    },
    {
      "constant": true,
      "inputs": [],
      "name": "matchIDGenerator",
      "outputs": [
        {
          "name": "",
          "type": "uint256"
        }
      ],
      "payable": false,
      "stateMutability": "view",
      "type": "function"
    },
    {
      "inputs": [],
      "payable": true,
      "stateMutability": "payable",
      "type": "constructor"
    },
    {
      "anonymous": false,
      "inputs": [
        {
          "indexed": false,
          "name": "_homeTeam",
          "type": "string"
        },
        {
          "indexed": false,
          "name": "_externalTeam",
          "type": "string"
        },
        {
          "indexed": false,
          "name": "_libelle",
          "type": "string"
        },
        {
          "indexed": false,
          "name": "_date",
          "type": "uint256"
        },
        {
          "indexed": false,
          "name": "_matchIDGenerator",
          "type": "uint256"
        },
        {
          "indexed": false,
          "name": "_quotation",
          "type": "uint256"
        }
      ],
      "name": "MatchCreation",
      "type": "event"
    },
    {
      "constant": false,
      "inputs": [
        {
          "name": "_homeTeam",
          "type": "string"
        },
        {
          "name": "_externalTeam",
          "type": "string"
        },
        {
          "name": "_libelle",
          "type": "string"
        },
        {
          "name": "_date",
          "type": "uint256"
        },
        {
          "name": "_quotation",
          "type": "uint256"
        }
      ],
      "name": "createMatch",
      "outputs": [],
      "payable": false,
      "stateMutability": "nonpayable",
      "type": "function"
    },
    {
      "constant": true,
      "inputs": [],
      "name": "getMatchsCount",
      "outputs": [
        {
          "name": "",
          "type": "uint256"
        }
      ],
      "payable": false,
      "stateMutability": "view",
      "type": "function"
    }
  ],
  "bytecode": "0x60806040526000600255336000806101000a81548173ffffffffffffffffffffffffffffffffffffffff021916908373ffffffffffffffffffffffffffffffffffffffff160217905550610b2d806100586000396000f3fe60806040526004361061006d576000357c0100000000000000000000000000000000000000000000000000000000900463ffffffff16806317c4ecfb1461007257806360113898146100b75780638a4c8118146100e25780638da5cb5b1461010b578063a2f0883914610136575b600080fd5b34801561007e57600080fd5b5061009960048036036100949190810190610839565b610161565b6040516100ae999897969594939291906109a1565b60405180910390f35b3480156100c357600080fd5b506100cc6103ad565b6040516100d99190610986565b60405180910390f35b3480156100ee57600080fd5b506101096004803603610104919081019061076d565b6103ba565b005b34801561011757600080fd5b5061012061063d565b60405161012d91906108ef565b60405180910390f35b34801561014257600080fd5b5061014b610662565b6040516101589190610986565b60405180910390f35b60018181548110151561017057fe5b9060005260206000209060080201600091509050806000015490806001018054600181600116156101000203166002900480601f0160208091040260200160405190810160405280929190818152602001828054600181600116156101000203166002900480156102225780601f106101f757610100808354040283529160200191610222565b820191906000526020600020905b81548152906001019060200180831161020557829003601f168201915b505050505090806002018054600181600116156101000203166002900480601f0160208091040260200160405190810160405280929190818152602001828054600181600116156101000203166002900480156102c05780601f10610295576101008083540402835291602001916102c0565b820191906000526020600020905b8154815290600101906020018083116102a357829003601f168201915b5050505050908060030160009054906101000a900460ff16908060030160019054906101000a900460ff1690806004018054600181600116156101000203166002900480601f0160208091040260200160405190810160405280929190818152602001828054600181600116156101000203166002900480156103845780601f1061035957610100808354040283529160200191610384565b820191906000526020600020905b81548152906001019060200180831161036757829003601f168201915b5050505050908060050154908060060160009054906101000a900460ff16908060070154905089565b6000600180549050905090565b6002600081548092919060010191905055507fe0c66af4dab8647ae1215a04c971305795bbadd88327f3d09b1825194463ac14888888888888886002548960405161040d9998979695949392919061090a565b60405180910390a160016101206040519081016040528060025481526020018a8a8080601f016020809104026020016040519081016040528093929190818152602001838380828437600081840152601f19601f82011690508083019250505050505050815260200188888080601f016020809104026020016040519081016040528093929190818152602001838380828437600081840152601f19601f82011690508083019250505050505050815260200160011515815260200160011515815260200186868080601f016020809104026020016040519081016040528093929190818152602001838380828437600081840152601f19601f8201169050808301925050505050505081526020018481526020016000151581526020018381525090806001815401808255809150509060018203906000526020600020906008020160009091929091909150600082015181600001556020820151816001019080519060200190610580929190610668565b50604082015181600201908051906020019061059d929190610668565b5060608201518160030160006101000a81548160ff02191690831515021790555060808201518160030160016101000a81548160ff02191690831515021790555060a08201518160040190805190602001906105fa929190610668565b5060c0820151816005015560e08201518160060160006101000a81548160ff02191690831515021790555061010082015181600701555050505050505050505050565b6000809054906101000a900473ffffffffffffffffffffffffffffffffffffffff1681565b60025481565b828054600181600116156101000203166002900490600052602060002090601f016020900481019282601f106106a957805160ff19168380011785556106d7565b828001600101855582156106d7579182015b828111156106d65782518255916020019190600101906106bb565b5b5090506106e491906106e8565b5090565b61070a91905b808211156107065760008160009055506001016106ee565b5090565b90565b60008083601f840112151561072157600080fd5b8235905067ffffffffffffffff81111561073a57600080fd5b60208301915083600182028301111561075257600080fd5b9250929050565b60006107658235610a96565b905092915050565b60008060008060008060008060a0898b03121561078957600080fd5b600089013567ffffffffffffffff8111156107a357600080fd5b6107af8b828c0161070d565b9850985050602089013567ffffffffffffffff8111156107ce57600080fd5b6107da8b828c0161070d565b9650965050604089013567ffffffffffffffff8111156107f957600080fd5b6108058b828c0161070d565b945094505060606108188b828c01610759565b92505060806108298b828c01610759565b9150509295985092959890939650565b60006020828403121561084b57600080fd5b600061085984828501610759565b91505092915050565b61086b81610a4e565b82525050565b61087a81610a60565b82525050565b6000828452602084019350610896838584610aa0565b61089f83610ae2565b840190509392505050565b60006108b582610a43565b8084526108c9816020860160208601610aaf565b6108d281610ae2565b602085010191505092915050565b6108e981610a8c565b82525050565b60006020820190506109046000830184610862565b92915050565b600060c0820190508181036000830152610925818b8d610880565b9050818103602083015261093a81898b610880565b9050818103604083015261094f818789610880565b905061095e60608301866108e0565b61096b60808301856108e0565b61097860a08301846108e0565b9a9950505050505050505050565b600060208201905061099b60008301846108e0565b92915050565b6000610120820190506109b7600083018c6108e0565b81810360208301526109c9818b6108aa565b905081810360408301526109dd818a6108aa565b90506109ec6060830189610871565b6109f96080830188610871565b81810360a0830152610a0b81876108aa565b9050610a1a60c08301866108e0565b610a2760e0830185610871565b610a356101008301846108e0565b9a9950505050505050505050565b600081519050919050565b6000610a5982610a6c565b9050919050565b60008115159050919050565b600073ffffffffffffffffffffffffffffffffffffffff82169050919050565b6000819050919050565b6000819050919050565b82818337600083830152505050565b60005b83811015610acd578082015181840152602081019050610ab2565b83811115610adc576000848401525b50505050565b6000601f19601f830116905091905056fea265627a7a723058208e9f77d6c7ab8ba622a629925525e6de66ab5489826fe3ebf29b436786c1eae96c6578706572696d656e74616cf50037",
  "source": "pragma solidity >=0.5.0 <0.7.0;\r\npragma experimental ABIEncoderV2;\r\n\r\ncontract Betting{\r\n    address public owner;\r\n\r\n    constructor() public payable{\r\n        owner = msg.sender;\r\n    }\r\n    Match[] public matchs;\r\n\r\n    uint public matchIDGenerator = 0;\r\n    \r\n    struct Match {\r\n        uint id;\r\n        string homeTeam;\r\n        string externalTeam;\r\n        bool homeVictory;\r\n        bool equality;\r\n        string libelle;\r\n        uint256 date; \r\n        bool settled;\r\n        uint quotation;\r\n    }\r\n    event MatchCreation(string _homeTeam, string _externalTeam, string _libelle, uint256 _date, uint _matchIDGenerator, uint _quotation);\r\n\r\n    function createMatch(string calldata _homeTeam, string calldata _externalTeam, string calldata _libelle, uint256 _date, uint _quotation) external {\r\n        matchIDGenerator++;\r\n        emit MatchCreation(_homeTeam, _externalTeam, _libelle, _date, matchIDGenerator, _quotation);\r\n        matchs.push(Match(matchIDGenerator, _homeTeam, _externalTeam, true, true, _libelle, _date, false, _quotation));\r\n    }\r\n    function getMatchsCount() public view returns(uint) { return matchs.length; }\r\n}",
  "sourcePath": "c:/Users/benja/formation-ethereum-basics/Exercices/corrections/03_test/contracts/Betting.sol",
  "compiler": {
    "name": "solc",
    "version": "0.5.0+commit.1d4f565a.Emscripten.clang"
  },
  "schemaVersion": "3.0.9",
  "updatedAt": "2019-05-21T13:34:38.526Z",
  "devdoc": {
    "methods": {}
  },
  "userdoc": {
    "methods": {}
  }
}